:020000040800F2
:10000000F00D0020A5040008010500080105000806
:1000100001050008010500080105000800000000B6
:1000200000000000000000000000000001050008C2
:100030000105000800000000010500080105000896
:100040000105000801050008010500080105000878
:100050000105000801050008010500080105000868
:100060000105000801050008010500080105000858
:100070000105000801050008010500080105000848
:100080000105000801050008010500080105000838
:100090000105000801050008010500080105000828
:1000A0000105000801050008010500080105000818
:1000B0000105000801050008010500080105000808
:1000C00001050008010500080105000801050008F8
:1000D0000105000801050008010500086106000887
:1000E00001050008010500080105000801050008D8
:1000F00001050008010500080105000801050008C8
:1001000001050008010500080105000801050008B7
:1001100001050008010500080105000801050008A7
:100120000105000801050008010500080105000897
:100130000105000801050008010500080105000887
:100140000105000801050008010500080105000877
:100150000105000801050008010500080105000867
:100160000105000801050008010500080105000857
:100170000105000801050008010500080105000847
:10018000010500080105000880B58AB000AF78605D
:10019000396000237B6200233B620023FB61002364
:1001A000BB617B681B8A9BB27B627B6A23F44053F2
:1001B0007B623B68DB881A467B6A13437B627B6AFF
:1001C0009AB27B681A827B689B899BB27B627B6A4E
:1001D00023F4B05323F00C037B623B689A883B689E
:1001E0001B8913439AB23B685B8913439BB21A463F
:1001F0007B6A13437B627B6A9AB27B689A817B68D5
:100200009B8A9BB27B627B6A23F440737B623B6870
:100210009B891A467B6A13437B627B6A9AB27B682E
:100220009A8207F10803184600F0B4FB7B68304A55
:10023000934203D07B682F4A934202D17B693B6291
:1002400001E03B693B627B689B899BB21BB2002B40
:100250000CDA3A6A13469B0013449A001A443B682E
:100260001B685B00B2FBF3F3FB610BE03A6A1346D9
:100270009B0013449A001A443B681B689B00B2FB26
:10028000F3F3FB61FB691C4AA2FB03235B091B011F
:100290007B627B6A1B09642202FB03F3FA69D31AAF
:1002A000BB617B689B899BB21BB2002B0CDABB69DC
:1002B000DB003233104AA2FB03235B0903F0070380
:1002C0007A6A13437B620BE0BB691B0132330A4A33
:1002D000A2FB03235B0903F00F037A6A13437B62DB
:1002E0007B6A9AB27B681A8100BF2837BD4680BD01
:1002F00000100140001401401F85EB5180B483B011
:1003000000AF78600B46FB70FB78002B08D07B6851
:100310009B899BB243F400539AB27B689A8107E0B1
:100320007B689B899BB223F400539AB27B689A81C5
:1003300000BF0C37BD4680BC704700BF80B483B09F
:1003400000AF78600B467B807B88C3F308039AB2CA
:100350007B689A8000BF0C37BD4680BC704700BFE9
:1003600080B487B000AF78600B467B8013467B700B
:1003700000233B610023FB600023BB6000237B6103
:100380007B687B617B88DBB25B09DBB23B617B888E
:1003900003F01F03FB600122FB6802FA03F3BB605A
:1003A0003B69012B03D17B690C337B6109E03B691D
:1003B000022B03D17B6910337B6102E07B6914332C
:1003C0007B617B78002B06D07B697A691168BA68FB
:1003D0000A431A6006E07B697A691168BA68D243F9
:1003E0000A401A6000BF1C37BD4680BC704700BF82
:1003F00080B487B000AF78600B467B800023FB6041
:1004000000237B610023BB600023FB747B88DBB28D
:100410005B09DBB2BB607B8803F01F037B610122B9
:100420007B6902FA03F37B61BB68012B07D17B6810
:100430009B899BB21A467B6913407B6111E0BB68C4
:10044000022B07D17B681B8A9BB21A467B6913403B
:100450007B6106E07B689B8A9BB21A467B691340EE
:100460007B617B881B0A9BB2FB600122FB6802FA5E
:1004700003F3FB607B681B889BB21A46FB68134042
:10048000FB607B69002B05D0FB68002B02D00123A9
:10049000FB7401E00023FB74FB7C18461C37BD464F
:1004A00080BC704780B582B000AF104B7B60104BB2
:1004B0003B6007E03B681A1D3A607A68111D79605D
:1004C00012681A603B680B4A9342F3D30A480B49FF
:1004D0004FF000028842B8BF40F8042BFADB00F06E
:1004E0002BF800BF0837BD4680BD00BFED190008DE
:1004F00000000020A8050020A8050020EC05002031
:1005000080B400AFFEE700BF80B483B000AF034605
:10051000FB71084997F907305B09FA7902F01F026D
:10052000012000FA02F241F8232000BF0C37BD463B
:1005300080BC704700E100E080B500AF00F020FC17
:1005400000F006F800F064F800F024F9FEE700BFC0
:1005500080B588B000AF4FF4C06000F0B9FC012155
:10056000042000F0C1FA01214FF4802000F0DAFAF3
:100570004FF44063BB6102233B770023BB77012329
:10058000FB7702237B7707F1180319461E4800F01A
:10059000E7FA07220A211C4800F0AAFB07220B21D8
:1005A000194800F0A5FB4FF4E133BB600023BB8189
:1005B0000023FB8100233B820023BB820C237B8230
:1005C00007F1080319461148FFF7DEFD012240F24A
:1005D00025510E48FFF7C4FE27233B7101237B7191
:1005E0000123BB710123FB713B1D184600F082FC07
:1005F0002720FFF789FF01210448FFF77FFE00BF96
:100600002037BD4680BD00BF0008024000480040C2
:1006100080B582B000AF0121102000F065FA4FF4E0
:1006200040533B6001233B710123BB7103237B716A
:100630000223FB713B461946084800F091FA4FF43B
:100640008051064800F034FB4FF40051034800F09D
:100650002FFB00BF0837BD4680BD00BF0010024021
:1006600080B582B000AF0023FB8040F225511148D5
:10067000FFF7BEFE0346002B18D00E4B9B88FB8075
:100680000D4B1B781A46FB88D9B20C4B9954FB884A
:100690000A2B05D1094800F013F800F05FF805E0D7
:1006A000054B1B780133DAB2034B1A7000BF0837D1
:1006B000BD4680BD00480040E8050020A805002098
:1006C00080B586B000AF786000233B7300233B7297
:1006D00000237B6100233B61786800F0BDF803468E
:1006E000FB81052000F07EF81A49786800F0C2FD11
:1006F0000346002B02D000F0C7F826E016497868C0
:1007000000F0B8FD0346002B1FD0FB89053B7A683B
:1007100013441B783B73FB89043B7A6813441B78B2
:100720003B7207F10C03184600F044FC786107F1B6
:100730000803184600F03EFC38617B69DBB23A6979
:10074000D2B21146184600F0EFF800BF1837BD4688
:1007500080BD00BF201800082C18000880B483B0AA
:1007600000AF0023FB7106E0FB79084A0021D15459
:10077000FB790133FB71FB793F2BF5D9044B002248
:100780001A7000BF0C37BD4680BC7047A80500201A
:10079000E805002080B500AF0A2000F023F80D48DE
:1007A00000F036F8642000F01DF80B4800F030F837
:1007B000642000F017F8094800F02AF8642000F0DF
:1007C00011F8074800F024F8642000F00BF800BF8F
:1007D00080BD00BF381800084418000854180008ED
:1007E0006418000880B483B000AF78607A6813465C
:1007F0005B001344DB007B6000BF7B685A1E7A609D
:10080000002BFAD100BF0C37BD4680BC704700BF3B
:1008100080B584B000AF78600023FB730FE0FB7BF2
:100820007A6813441B789BB219460A48FFF786FD85
:100830004FF4FA70FFF7D6FFFB7B0133FB73FB7BB2
:100840007A6813441B78002BE9D100BF1037BD46EE
:1008500080BD00BF0048004080B485B000AF786024
:100860000023FB8102E0FB890133FB81FB897A686D
:1008700013441B780A2BF6D1FB8901339BB218462F
:100880001437BD4680BC704780B500AF4FF480512F
:100890001F4800F0F3F90346002B1BD14FF4005121
:1008A0001B4800F0EBF90346002B09D11948FFF76C
:1008B000AFFF0A20FFF796FF1748FFF7A9FF24E0D4
:1008C0001448FFF7A5FF0A20FFF78CFF1348FFF736
:1008D0009FFF1AE04FF400510D4800F0CFF9034696
:1008E000002B09D10B48FFF793FF0A20FFF77AFF8F
:1008F0000B48FFF78DFF08E00648FFF789FF0A2045
:10090000FFF770FF0748FFF783FF00BF80BD00BF00
:1009100000100240781800088C1800089018000891
:10092000941800089818000880B582B000AF0346FC
:100930000A46FB711346BB71FB79002B0DD01148A1
:10094000FFF766FF0A20FFF74DFF0F48FFF760FF34
:100950004FF480510D4800F0B9F9BB79002B0DD050
:100960000848FFF755FF0A20FFF73CFF0848FFF74C
:100970004FFF4FF40051054800F0A8F900BF0837B9
:10098000BD4680BD9C180008B01800080010024049
:10099000C418000880B489B000AF78600023BB6140
:1009A00000237B610023FB6102233B610023FB608A
:1009B0000223BB60484B9B6803F00C03BB61BB691F
:1009C000042B07D0082B09D0002B3FD17B68434A6A
:1009D0001A603FE07B68424A1A603BE03E4B5B682E
:1009E00003F480039B0DFB603B4B5B6803F03F030C
:1009F000BB60FB68002B0DD0394ABB68B2FBF3F239
:100A0000354B596847F6C0730B409B0903FB02F353
:100A1000FB610CE0314ABB68B2FBF3F22E4B596824
:100A200047F6C0730B409B0903FB02F3FB612A4BA3
:100A30005B6803F440331B0C01335B003B61FA69D4
:100A40003B69B2FBF3F27B681A6003E07B68234AE0
:100A50001A6000BF204B9B6803F0F003BB61BB69C9
:100A60001B09BB611F4ABB6913441B78DBB27B6166
:100A70007B681A687B69DA407B685A60164B9B6812
:100A800003F4E053BB61BB699B0ABB61154ABB69B8
:100A900013441B78DBB27B617B685A687B69DA4060
:100AA0007B689A600C4B9B6803F46043BB61BB6935
:100AB0005B0BBB610B4ABB6913441B78DBB27B61E8
:100AC0007B685A687B69DA407B68DA6000BF24374C
:100AD000BD4680BC704700BF003802400024F400CF
:100AE00000127A000000002080B483B000AF78606C
:100AF0000B46FB70FB78002B06D00949084B1A6B9C
:100B00007B6813430B6306E00549054B1A6B7B6852
:100B1000DB4313400B6300BF0C37BD4680BC7047FE
:100B20000038024080B483B000AF78600B46FB70A1
:100B3000FB78002B06D00949084B1A6C7B681343DD
:100B40000B6406E00549054B1A6C7B68DB431340D8
:100B50000B6400BF0C37BD4680BC704700380240B4
:100B600080B487B000AF7860396000237B610023D8
:100B70003B610023FB6000237B6176E001227B69FF
:100B800002FA03F33B613B681A683B691340FB6060
:100B9000FA683B699A4265D17B681A687B695B0099
:100BA000032101FA03F3DB431A407B681A607B6878
:100BB0001A683B681B7919467B695B0001FA03F3ED
:100BC0001A437B681A603B681B79012B03D03B6892
:100BD0001B79022B2ED17B689A687B695B0003210D
:100BE00001FA03F3DB431A407B689A607B689A68DA
:100BF0003B685B7919467B695B0001FA03F31A4392
:100C00007B689A607B685A687B699BB219460123AE
:100C10008B40DB431A407B685A607B685B683A68AC
:100C2000927911467A6992B201FA02F292B21A43AB
:100C30007B685A607B68DA687B699BB25B00032142
:100C400001FA03F3DB431A407B68DA607B68DA68F9
:100C50003B68DB7919467B695B0001FA03F31A43B1
:100C60007B68DA607B6901337B617B690F2B85D9F7
:100C700000BF1C37BD4680BC704700BF80B485B044
:100C800000AF78600B467B800023FB737B685A695A
:100C90007B881340002B02D00123FB7301E000236B
:100CA000FB73FB7B18461437BD4680BC704700BF02
:100CB00080B483B000AF78600B467B807B687A8815
:100CC0001A8300BF0C37BD4680BC704780B483B028
:100CD00000AF78600B467B807B685A697B885A40FE
:100CE0007B685A6100BF0C37BD4680BC704700BFAF
:100CF00080B485B000AF78600B467B8013467B7074
:100D00000023FB600023BB607A787B8803F0070335
:100D10009B0002FA03F3FB607B88DB089BB218465A
:100D20007B88DB089BB21A467B68083253F8222086
:100D30007B8803F007039B000F2101FA03F3DB43D9
:100D400002EA03017B6800F1080243F822107B8865
:100D5000DB089BB21A467B68083253F82220FB68F6
:100D60001343BB607B88DB089BB21A467B68083262
:100D7000B96843F8221000BF1437BD4680BC7047E5
:100D800080B500AF124A124B1B6843F00103136099
:100D90000F4B00229A600E4A0D4B1B6823F08473A0
:100DA00023F4803313600A4B0A4A5A60084A084BFE
:100DB0001B6823F480231360054B0022DA6000F0E7
:100DC0000DF8054B4FF000629A6000BF80BD00BF78
:100DD000003802401030002400ED00E080B483B001
:100DE00000AF00237B6000233B60354A344B1B6817
:100DF00043F480331360324B1B6803F400333B60D1
:100E00007B6801337B603B68002B03D17B68B3F5C3
:100E1000A06FF0D12A4B1B6803F40033002B02D0E3
:100E200001233B6001E000233B603B68012B42D182
:100E3000234A234B1B6C43F080531364214A214BFC
:100E40001B6843F4804313601D4A1D4B9B689360ED
:100E50001B4A1B4B9B6843F400439360184A184B92
:100E60009B6843F4A0539360154B174A5A60144A89
:100E7000134B1B6843F08073136000BF104B1B685B
:100E800003F00073002BF9D0104B40F205621A609A
:100E90000B4A0B4B9B6823F003039360084A084BF3
:100EA0009B6843F00203936000BF054B9B6803F00F
:100EB0000C03082BF9D100BF0C37BD4680BC70472E
:100EC000003802400070004008544007003C0240D7
:100ED00080B483B000AF7860054A7B6843F0BF639D
:100EE00043F40033D36000BF0C37BD4680BC70476D
:100EF00000ED00E080B485B000AF78600023FB73A4
:100F00000023BB730F237B737B68DB78002B38D007
:100F1000264BDB68DB4303F4E0631B0AFB73FB7BBC
:100F2000C3F10403BB737A7BFB7B42FA03F37B734D
:100F30007B685B781A46BB7B02FA03F3FB737B6822
:100F40009A787B7B1340DAB2FB7B1343FB73FB7B0A
:100F50001B01FB73164A7B681B781344FA7B83F8EA
:100F60000023134A7B681B785B09DBB218467B6859
:100F70001B7803F01F03012101FA03F342F820302C
:100F80000FE00B497B681B785B09DBB218467B6876
:100F90001B7803F01F0301229A4000F1200341F85F
:100FA000232000BF1437BD4680BC704700ED00E031
:100FB00000E100E00A22002100F008BB2DE9F04129
:100FC0004FF0010E744600254FF0FF362B198B426F
:100FD00000EB06070DD23F5D10F803C0BC452DD2D3
:100FE0001D460124C6EB030E2B198B4200EB0607AE
:100FF000F1D34FF00108C2F800E0444600254FF05D
:10100000FF372B19994200EB070E0ED91EF804E0AA
:1010100010F803C0F44518D91D460124C7EB030896
:101020002B19994200EB070EF0D80137701C87424C
:1010300024BFC2F800803846BDE8F0810CD04FF0E4
:10104000010E2E4674467544C0E70CD04FF00108DF
:101050002F4644464544D4E7744509BFA6460134AB
:101060001D460124B2E7444509BFA04601341D4690
:101070000124C6E72DE9F04FADF2144D16460546A2
:101080008B461046194603AA1C46FFF797FF03AB91
:1010900081460DF20C4243F8044F9342FBD14CB110
:1010A000631E324604A812F8011B40F8213013F1E8
:1010B000FF33F8D203994A463144304600F008FB2A
:1010C000002871D109F1FF330093F3188246019390
:1010D00023468046544658469A4608EB0A073A1A71
:1010E0000021284400F0A4FA002858D1002F56D03F
:1010F000EB1904AA13F8013C52F823304BB124B188
:10110000039A934201D2C2EB0A0398440024384662
:10111000E3E74C4523460AF1FF3E38BF4B46734593
:1011200013D208EB030216F803C0A85C84452A44D6
:1011300006EB030106D02EE011F801CF12F8010FE3
:10114000844528D101337345F6D34C45009980F08E
:101150008B80009B019808EB03020378A85C834214
:101160002A4440F08180019B06EB040B06E013F853
:1011700001ED12F8010D864504D161469B4501F150
:10118000FF3CF4D101348C4270D8039C3846A04413
:10119000C4EB0A04A1E7C9F101029044B5E70020BD
:1011A0000DF2144DBDE8F08FC9EB04034B4538BF79
:1011B0004B46013309F1FF38039306EB0803584609
:1011C0004FF0000ACB4699460AEB04073A1A002171
:1011D000284400F02DFA0028E1D1002FDFD0EB19D0
:1011E00004AA13F8013C52F82330A3BB611E8B45BF
:1011F00015D20AEB0B0216F80B3015F802E09E45EB
:101200002A4406EB0B005B4606D027E010F801CF1E
:1012100012F801EFF44521D101338B42F6D3B8F136
:10122000FF3F11D00AEB080299F80010AB5C99421D
:101230002A440FD14B4605E013F8010D12F8011DA9
:10124000884207D1B342F7D105EB0A000DF2144DE5
:10125000BDE8F08F039B9A443846B5E7CBF1010215
:1012600092449A443846AFE749468BE705EB0800BD
:1012700096E700BF0378002B00F004812DE9F04FC2
:1012800091F8008085B04446B8F1000F16D086462C
:1012900001F1010C012703E012F8014B6CB19446F7
:1012A0009C4214BF002707F001071EF8013F624669
:1012B000002BF1D19CF800300BBB17B105B0BDE895
:1012C000F08F0E46054641460130C6EB0C0400F097
:1012D00031FA074698B1012CF0D02819874294BF03
:1012E000C7EB000B4FF0010B1F2C0CD923463246E5
:1012F00059463846FFF7BEFE05B0BDE8F08F002026
:1013000005B0BDE8F08F03AA21463046FFF756FE30
:101310000399804602463144304600F0D9F900284E
:1013200058D108F1FF330193F31881460546009325
:101330005846B2466619321A0021384400F078F94E
:101340000028DCD1002EDAD0C845434638BF4B46D2
:101350009C4212D95A191AF80310B85C88423A44D0
:101360000AEB030E06D02DE01EF8010F12F8011F44
:10137000884227D101339C42F6D8019BC8451946C3
:1013800040F28380EA1800980378B85C83423A44BC
:101390007BD1009B0AEB090B06E013F801CD12F894
:1013A00001EDF44504D101465B4501F1FF30F4D174
:1013B00009F10109894557D8039B30461D44C3EB09
:1013C0000409B7E7C8F1010215441D444FF00009B4
:1013D0003046AFE7C8EB0403434538BF434601330B
:1013E00008F1FF39039306EB090358460025BB4675
:1013F0009A4667193A1A0021584400F019F9002852
:101400007FF47DAF002F3FF47AAF444515D908EB48
:10141000050216F808301BF8020098425A4406EB01
:101420000801434606D023E011F801EF12F8010F3E
:1014300086451DD101339C42F6D8B9F1FF3F12D049
:1014400005EB09029AF800101BF8023099425A4441
:1014500014D1534605E013F8010D12F8011D88421E
:101460000CD1B342F7D15F46781905B0BDE8F08FD3
:10147000C8F1010215441D443846BAE7039B3846BB
:101480001D44B6E70B7813B97047414690E700203A
:10149000704700BF2DE9F84FDDF828900F468046D1
:1014A00016461D468B4600E0A3465C46484614F8A7
:1014B00001AB00F0A1F85044417801F0080101F0BF
:1014C000FF0C0029F0D152462D2A61D02B2A04BFEF
:1014D0009BF801200BF10204002D43D0102D65D0A4
:1014E000A946BCF1000F0CBF6FF0004A4FF0004A54
:1014F0000021BAFBF9FE084609FB1EAA05E029D027
:1015000009FB0030012114F8012BA2F13003092B53
:1015100005D9A2F14103192B0AD8A2F137039D4244
:101520000EDD4A1CEFD08645E9D24FF0FF31EAE7E5
:10153000A2F16103192B03D8A2F157039D42F0DCFD
:101540004B1C15D0BCF1000F10D14EB1E1B9376082
:10155000BDE8F88F9A45D3DA70464FF0FF31D2E7F5
:10156000BDE8F88F302A1AD00A25B9E74042ECE7E7
:10157000BCF1000F4FF022030CBF6FF000404FF0A2
:101580000040C8F80030F6B1671E3760BDE8F88F3C
:101590000BF102049BF801204FF0010C9CE723782B
:1015A00003F0DF03582B08D0082599E7302A97D19C
:1015B000237803F0DF03582B92D14FF010096278A3
:1015C0004D4602348DE7BDE8F88F00BF30B5084CBA
:1015D000084B25686C6B83B0002C08BF1C46009438
:1015E00013460A4601462846FFF754FF03B030BDB4
:1015F000380400203C040020D0F8EC00704700BF05
:1016000082B049B15AB16BB113780B601278101CDB
:1016100018BF012002B0704701A9002AF3D110467B
:1016200002B070476FF00100F4E700BF0000000057
:1016300001F0FF01102A2BDB10F0070F08D010F883
:10164000013B013A8B422DD010F0070F42B3F6D187
:10165000F0B441EA012141EA014122F007047FF0A0
:1016600000070023F0E80256083C85EA010586EAF7
:10167000010685FA47F5A3FA87F586FA47F6A5FA33
:1016800087F68EB9EED1F0BC01F0FF0102F007023F
:1016900032B110F8013B013A83EA010313B1F8D1EA
:1016A0000020704701387047002D06BF35460338CB
:1016B000073815F0010F07D1013015F4807F02BF04
:1016C000013015F4C03F0130F0BC0138704700BF55
:1016D000032A70B426D940EA01039B0711D004788D
:1016E0000D78AC4222D10244431C05E013F8014BB3
:1016F00011F8015FAC4219D19342F7D1002070BCC0
:1017000070470C4603461E682568AE4218462146BF
:1017100003F1040304F10404E1D1043A032A184656
:101720002146F0D8002ADAD11046E8E7601B70BCE9
:10173000704700BF70B411F0FF0434D085070FD09C
:101740000378002B5AD09C422BD0431C05E013F8A1
:10175000012B002A4FD0944223D09A071846F6D185
:101760000E0206F47F462643036846EA064601E079
:1017700050F8043F86EA0305A5F10132A3F10131D7
:1017800022EA050221EA0303134313F0803FEFD05E
:10179000037823B932E010F8013F002B2ED09C4291
:1017A000F9D170BC704784070BD00378002BF8D0B8
:1017B000431C03E002780133002AF2D0990718464F
:1017C000F8D10268A2F1013323EA020313F0803F4B
:1017D00008D150F8042FA2F1013323EA020313F0D9
:1017E000803FF6D00378002BDBD010F8013F002BB0
:1017F000FBD170BC7047104670BC7047184670BC77
:10180000704700BF21B1FF2A04D80A700120704739
:10181000084670478A2303604FF0FF30704700BFCF
:101820006765745374617475732829007365745304
:10183000746174757328000041542B435751415013
:101840000D0A000041542B43574D4F44453D320D86
:101850000A00000041542B4349504D55583D310D6D
:101860000A00000041542B434950534552564552FB
:101870003D312C38300D0A0041542B43495053451B
:101880004E443D302C330D0A0000000031310A0077
:1018900031300A0030310A0030300A0041542B4305
:1018A000495053454E443D302C31390D0A0000005B
:1018B00031737420736F636B657420746F67676C2A
:1018C00065640A00326E6420736F636B6574207404
:1018D0006F67676C65640A0043000000504F53490E
:1018E00058000000000000002E0000000020202012
:1018F00020202020202028282828282020202020C0
:10190000202020202020202020202020208810108F
:1019100010101010101010101010101010040404EB
:1019200004040404040404101010101010104141A9
:101930004141414101010101010101010101010197
:1019400001010101010101011010101010104242AB
:101950004242424202020202020202020202020267
:101960000202020202020202101010102000000007
:101970000000000000000000000000000000000067
:101980000000000000000000000000000000000057
:101990000000000000000000000000000000000047
:1019A0000000000000000000000000000000000037
:1019B0000000000000000000000000000000000027
:1019C0000000000000000000000000000000000017
:1019D0000000000000000000000000000000000007
:0D19E00000000000000000000000000000FA
:1019ED0000000000010203040102030406070809B8
:1019FD0000000000FC02002064030020CC03002046
:101A0D0000000000000000000000000000000000C9
:101A1D0000000000000000000000000000000000B9
:101A2D0000000000000000000000000000000000A9
:101A3D000000000000000000000000000000000099
:101A4D000000000000000000000000000000000089
:101A5D000000000000000000000000000000000079
:101A6D000000000000000000000000000000000069
:101A7D000000000000000000000000000000000059
:101A8D000000000000000000000000000000000049
:101A9D000000000000000000010000000000000038
:101AAD000E33CDAB34126DE6ECDE05000B000000FD
:101ABD000000000000000000000000000000000019
:101ACD000000000000000000000000000000000009
:101ADD0000000000000000000000000000000000F9
:101AED0000000000000000000000000000000000E9
:101E1D000000000000000000100000204300000042
:101E2D0000000000000000000000000000000000A5
:101E3D000000000000000000000000004300000052
:101E4D000000000000000000000000000000000085
:101E5D000000000000000000000000004300000032
:101E6D000000000000000000000000000000000065
:101E7D000000000000000000000000004300000012
:101E8D000000000000000000000000000000000045
:101E9D0000000000000000000000000043000000F2
:101EAD000000000000000000000000000000000025
:101EBD0000000000000000000000000043000000D2
:101ECD000000000000000000000000000000000005
:101EDD0000000000000000000000000043000000B2
:101EED0000000000000000000000000000000000E5
:101EFD0000000000000000000000000005180008B0
:101F0D000116000800000000EC180008E818000891
:101F1D00E4180008E4180008E4180008E4180008A4
:101F2D00E4180008E4180008E4180008E418000894
:101F3D00E4180008FFFFFFFFFFFFFFFFFFFFFFFF9C
:101F4D00FFFF00000100415343494900000000001C
:101F5D000000000000000000000000000000000074
:101F6D0000000000000041534349490000000000FB
:101F7D000000000000000000000000000000000054
:081F8D0000000000000000004C
:0400000508000000EF
:00000001FF
